:100000000C9472000C9486000C9486000C9486006C
:100010000C9486000C9486000C9486000C94860048
:100020000C9486000C9486000C9486000C94860038
:100030000C9486000C9486000C9486000C94860028
:100040000C9486000C9486000C9486000C94860018
:100050000C9486000C9486000C9486000C94860008
:100060000C9486000C9486000C9486000C948600F8
:100070000C9486000C9486000C9486000C948600E8
:100080000C9486000C9486000C9486000C948600D8
:100090000C9486000C9486000C9486000C948600C8
:1000A0000C9486000C9486000C9486000C948600B8
:1000B0000C9486000C9486000C9486000C948600A8
:1000C0000C9486000C9486000C9486000C94860098
:1000D0000C9486000C9486000C9486000C94860088
:1000E0000C94860011241FBECFEFD1E2DEBFCDBF3E
:1000F00000E00CBF22E0A0E0B2E001C01D92A230FF
:10010000B207E1F70E9493000C94F5000C940000F4
:1001100088E084B980E48CBD08958EBD0DB407FEDF
:10012000FDCF8EB508958FEF81B91AB882B980E1FD
:1001300085B980E78093020180EF809300020E94DE
:100140008800CCE4D9E41BE202E58DE2F82E94E5C8
:10015000E92E809100024C9928C08E7F8093000286
:10016000809100024E9923C08D7F80930002809180
:1001700000024D991EC08B7F809300028091000287
:100180004C9919C0877F8093000280910002863FBE
:1001900019F198F4803FD1F0813F09F1809101027B
:1001A0000E948D00809582B9D4CF8160D7CF8260C4
:1001B000DCCF8460E1CF8860E6CF8C3F51F08F3F89
:1001C00089F08A3F59F700930102E8CFF0920102CB
:1001D000E5CFD0930102E2CFC0930102DFCFE092DE
:0E01E0000102DCCF10930102D9CFF894FFCFBB
:00000001FF
